S0250000736576656E5F7365676D656E745F373434375F32342D31302D323031372E737265630D
S11300000C942A000C9434000C9434000C943400A6
S11300100C9434000C9434000C9434000C9434008C
S11300200C9434000C9434000C9434000C9434007C
S11300300C9434000C9434000C9434000C9434006C
S11300400C9434000C9434000C9434000C9434005C
S11300500C94340011241FBECFE5D8E0DEBFCDBF21
S11300600E9436000C9454000C9400008FEF81BB66
S113007020E030E015C0982F922B92BB4FEF52E551
S113008097E0415050409040E1F700C000008F5F7E
S11300908A3089F7205F3F4F22BB203A310511F0A7
S10F00A080E0E9CF12BAE4CFF894FFCF5F
S9030000FC
