:100000000C942A000C9434000C9434000C943400AA
:100010000C9434000C9434000C9434000C94340090
:100020000C9434000C9434000C9434000C94340080
:100030000C9434000C9434000C9434000C94340070
:100040000C9434000C9434000C9434000C94340060
:100050000C94340011241FBECFE5D8E0DEBFCDBF25
:100060000E9436000C946D000C9400008FEF81BB51
:1000700061E070E080E090E042B39B01082E02C096
:10008000220F331F0A94E2F7242B22BB2FEF34E315
:100090004CE0215030404040E1F700C000000196A4
:1000A0008830910549F787E090E032B3AB01082E24
:1000B00002C0440F551F0A94E2F7242F20952323F2
:1000C00022BB2FEF34E34CE0215030404040E1F7B9
:0E00D00000C00000019748F7CDCFF894FFCF95
:00000001FF
