S0210000636F6E76657965725F6D6F746F725F61746D656761333238702E737265632D
S11300000C9434000C943E000C943E000C943E007E
S11300100C943E000C943E000C943E000C943E0064
S11300200C943E000C943E000C943E000C943E0054
S11300300C943E000C943E000C943E000C943E0044
S11300400C943E000C943E000C943E000C943E0034
S11300500C943E000C943E000C943E000C943E0024
S11300600C943E000C943E0011241FBECFEFD8E048
S1130070DEBFCDBF0E9440000C944E000C940000E3
S113008083E08AB991E082E04B9B03C08BB9589816
S1130090FBCF4C9BF9CF59989BB9F6CFF894FFCF7F
S9030000FC
