S022000055534152545F61746D6567615F333238705F7465726D696E616C2E737265637E
S11300000C9434000C9449000C9449000C9449005D
S11300100C9449000C9449000C9449000C94490038
S11300200C9449000C9449000C9449000C94490028
S11300300C9449000C9449000C9449000C94490018
S11300400C9449000C9449000C9449000C94490008
S11300500C9449000C9449000C9449000C944900F8
S11300600C9449000C94490011241FBECFEFD8E032
S1130070DEBFCDBF11E0A0E0B1E0E2EAF1E002C0F2
S113008005900D92AE30B107D9F70E948E000C9402
S1130090CF000C9400001092C50087E68093C40042
S11300A088E18093C10086E08093C2000895E0EC6B
S11300B0F0E0908195FFFDCF8093C6000895CF9323
S11300C0DF93EC018881882331F021960E94570048
S11300D089918111FBCF8DE00E945700DF91CF9170
S11300E00895CF93DF93CDB7DEB761970FB6F89439
S11300F0DEBF0FBECDBF4AE0BE016F5F7F4F0E94DF
S1130100A500CE0101960E945F0061960FB6F89497
S1130110DEBF0FBECDBFDF91CF9108950E944B008B
S113012080E091E00E945F00C4E6D0E0CE010E942E
S113013071002FEF80E792E0215080409040E1F77A
S113014000C00000219791F7EBCFBB27FB01552797
S1130150AA27880F991FAA1FA41710F0A41B839520
S11301605051B9F7A05DAA3308F0A95DA193009797
S113017079F7B111B1931192CB010C94BF00DC015A
S1130180FC01672F71917723E1F7329704C07C91CA
S11301906D9370836291AE17BF07C8F30895F89406
S10501A0FFCF8B
S11101A248656C6C6F20576F726C64212100ED
S9030000FC
