S02500006C65645F626C696E6B696E675F636C6173735F32332D31302D323031372E737265635F
S11300000C942A000C9434000C9434000C943400A6
S11300100C9434000C9434000C9434000C9434008C
S11300200C9434000C9434000C9434000C9434007C
S11300300C9434000C9434000C9434000C9434006C
S11300400C9434000C9434000C9434000C9434005C
S11300500C94340011241FBECFE5D8E0DEBFCDBF21
S11300600E9436000C9462000C9400008FEF81BB58
S113007061E070E087E090E09B01082E02C0220F4F
S1130080331F0A94E2F722BB2FEF34E34CE02150F4
S113009030404040E1F700C00000019768F780E07D
S11300A090E032B3AB01082E02C0440F551F0A94EE
S11300B0E2F7242F2095232322BB01968830910553
S10B00C081F7D8CFF894FFCFBB
S9030000FC
