S01700004763634170706C69636174696F6E322E737265635A
S11300000C942A000C9434000C9434000C943400A6
S11300100C9434000C9434000C9434000C9434008C
S11300200C9434000C9434000C9434000C9434007C
S11300300C9434000C9434000C9434000C9434006C
S11300400C9434000C9434000C9434000C9434005C
S11300500C94340011241FBECFE5D8E0DEBFCDBF21
S11300600E9441000C9460000C940000009741F041
S1130070EFE9FFE03197F1F700C000000197C1F705
S113008008958FEF81BB01E010E0C0E0D0E022B31F
S1130090C8010C2E02C0880F991F0A94E2F7822B24
S11300A082BB88EE93E00E94360082B312BA88EED7
S11300B093E00E9436002196C830D10541F7E5CF80
S10700C0F894FFCFDE
S9030000FC
