S01A00006C65645F626C696E6B696E675F636C6173732E73726563B3
S11300000C942A000C9434000C9434000C943400A6
S11300100C9434000C9434000C9434000C9434008C
S11300200C9434000C9434000C9434000C9434007C
S11300300C9434000C9434000C9434000C9434006C
S11300400C9434000C9434000C9434000C9434005C
S11300500C94340011241FBECFE5D8E0DEBFCDBF21
S11300600E9436000C9456000C9400008FEF81BB64
S113007061E070E080E090E042B39B01082E02C092
S1130080220F331F0A94E2F7242B22BB2FEF33ED08
S113009040E3215030404040E1F700C0000022B36B
S11300A012BA01968830910539F7E4CFF894FFCF5E
S9030000FC
