S01400006D6F746F72206472697665722E7372656333
S11300000C9434000C943E000C943E000C943E007E
S11300100C943E000C943E000C943E000C943E0064
S11300200C943E000C943E000C943E000C943E0054
S11300300C943E000C943E000C943E000C943E0044
S11300400C943E000C943E000C943E000C943E0034
S11300500C943E000C943E000C943E000C943E0024
S11300600C943E000C943E0011241FBECFEFD8E048
S1130070DEBFCDBF0E9440000C9450000C940000E1
S11300808FEF87B992E081E098B92FEF33E244EF24
S1130090215030404040E1F700C0000088B9F4CF5F
S10700A0F894FFCFFE
S9030000FC
