S0200000736576656E5F7365676D656E745F32332D31302D323031372E7372656348
S11300000C942A000C943F000C943F000C943F0085
S11300100C943F000C943F000C943F000C943F0060
S11300200C943F000C943F000C943F000C943F0050
S11300300C943F000C943F000C943F000C943F0040
S11300400C943F000C943F000C943F000C943F0030
S11300500C943F0011241FBECFE5D8E0DEBFCDBF16
S113006010E0A0E6B0E0ECEEF0E002C005900D92E6
S1130070AA36B107D9F70E9441000C9474000C947D
S11300800000CF93DF93CDB7DEB72A970FB6F8946D
S1130090DEBF0FBECDBF8AE0E0E6F0E0DE011196E0
S11300A001900D928A95E1F78FEF81BB84BB9E018D
S11300B0255F3F4FDE01119614C08C9185BB819161
S11300C082BB4FEF84E39CE0415080409040E1F7D5
S11300D000C000002E173F0781F711962A173B072F
S10F00E049F3FE013196E9CFF894FFCFFC
S10D00EC3F065B4F666D7D07FF6F52
S9030000FC
