S022000070756C6C2075702070726163746963655F31392D31302D3230372E73726563B8
S11300000C942A000C9434000C9434000C943400A6
S11300100C9434000C9434000C9434000C9434008C
S11300200C9434000C9434000C9434000C9434007C
S11300300C9434000C9434000C9434000C9434006C
S11300400C9434000C9434000C9434000C9434005C
S11300500C94340011241FBECFE5D8E0DEBFCDBF21
S11300600E9436000C943F000C94000084B314BA30
S1130070889A989902C0909AFCCF9098FACFF894F5
S1050080FFCFAC
S9030000FC
