S018000061746D656761333238705F75736172742E7372656302
S11300000C9434000C943E000C943E000C943E007E
S11300100C943E000C943E000C943E000C943E0064
S11300200C943E000C943E000C943E000C943E0054
S11300300C943E000C943E000C943E000C943E0044
S11300400C943E000C943E000C943E000C943E0034
S11300500C943E000C943E000C943E000C943E0024
S11300600C943E000C943E0011241FBECFEFD8E048
S1130070DEBFCDBF0E9454000C946C000C940000B1
S11300801092C50087E68093C40088E18093C10084
S113009086E08093C2000895E0ECF0E0808188233C
S11300A0ECF78091C60008950E9440008FEF87B955
S11300B006EC10E0CFE3F801C0830E944C0088B93D
S11300C0FFEF24E38CE0F15020408040E1F700C0D2
S10F00D00000C15081F7EECFF894FFCF80
S9030000FC
