:100000000C9434000C9451000C9451000C94510049
:100010000C9451000C9451000C9451000C9451001C
:100020000C9451000C9451000C9451000C9451000C
:100030000C9451000C9451000C9451000C945100FC
:100040000C9451000C9451000C9451000C945100EC
:100050000C9451000C9451000C9451000C945100DC
:100060000C9451000C94510011241FBECFEFD8E026
:10007000DEBFCDBF11E0A0E0B1E0E4E2F2E002C0FB
:1000800005900D92AC30B107D9F721E0ACE0B1E0BA
:1000900001C01D92AC30B207E1F70E949C000C94A5
:1000A00010010C940000EAE7F0E080818760808313
:1000B000ACE7B0E08C9180648C9380818068808311
:1000C0008081806480830895ECE7F0E09081907FE8
:1000D00090839081892B8083EAE7F0E080818064BF
:1000E0008083808186FDFDCF80917800909179009A
:1000F00008951092C50083E38093C40088E1809343
:10010000C10086E08093C2000895E0ECF0E09081A9
:1001100095FFFDCF8093C6000895CF93DF93EC0148
:100120008881882331F021960E9485008991811170
:10013000FBCFDF91CF910895CF93DF9300D000D014
:10014000CDB7DEB70E9453000E9479008FE084B9DA
:100150006894FF24F2F880E00E9464008C014AE079
:10016000BE016F5F7F4F0E94E600CE0101960E94A4
:100170008D008DE00E9485002FEF81EE94E02150EC
:1001800080409040E1F700C00000C8018C529140CF
:10019000873C910530F480E091E00E948D00F5B835
:1001A000DACFC801855F91408F38914030F486E006
:1001B00091E00E948D00F5B8CECF0438134058F27C
:1001C00086E091E00E948D00F5B8C5CFBB27FB010A
:1001D0005527AA27880F991FAA1FA41710F0A41B40
:1001E00083955051B9F7A05DAA3308F0A95DA1939A
:1001F000009779F7B111B1931192CB010C940001E2
:10020000DC01FC01672F71917723E1F7329704C07D
:100210007C916D9370836291AE17BF07C8F3089508
:04022000F894FFCF80
:0C0224004C6F77203A004D6964203A00CE
:00000001FF
