:100000000C942A000C943F000C943F000C943F0089
:100010000C943F000C943F000C943F000C943F0064
:100020000C943F000C943F000C943F000C943F0054
:100030000C943F000C943F000C943F000C943F0044
:100040000C943F000C943F000C943F000C943F0034
:100050000C943F0011241FBECFE5D8E0DEBFCDBF1A
:1000600010E0A0E6B0E0E4EFF0E002C005900D92F1
:10007000AA36B107D9F70E9441000C9478000C947D
:100080000000CF93DF93CDB7DEB72A970FB6F89471
:10009000DEBF0FBECDBF8FEF81BB87BB8AE0E0E63E
:1000A000F0E0DE01119601900D928A95E1F79E0134
:1000B000255F3F4F41E092E0DE01119616C048BB3C
:1000C0008C9182BB98BB819182BB5FE76AE186E03D
:1000D000515060408040E1F700C000002E173F07FC
:1000E00071F711962A173B0739F3FE013196E7CFD6
:0400F000F894FFCFB2
:0A00F4003F065B4F666D7D07FF6F4E
:00000001FF
